S01A0000626C655F6869645F6F6E5F676174745F736F632E73333724
S31500000000010000000D900D90502701000100000036
S31500000010001020007D6990BA00000000000000007A
S3150000002000000000000000000000000000000000CA
S315000000300000000000000000000000000D900D9080
S31500000040A55A0000002020080000008000000000E3
S31500000050000000000000000000000000000000009A
S31500000060000000000000000000000000000000008A
S31500000070000000000000000000000000000000007A
S31500000080000000000000000000000000000000006A
S3150000100020710100812120089527200895272008B6
S31500001010952720089527200895272008000000001E
S315000010200000000000000000000000005147000022
S315000010309527200800000000E1470000AB2F0000C4
S31500001040952720089527200895272008952720080A
S3150000105095272008952720089527200895272008FA
S315000010609527200895272008011100002D4F2008FC
S31500001070E130200895272008952720089527200885
S31500001080D92E200895272008B98C20085D8D2008C8
S3150000109095272008518C2008551700009527200811
S315000010A09527200895272008C17420089527200831
S315000010B095272008952720082071010095272008EC
S315000010C0812120085910000095272008952720081F
S315000010D09527200895272008C9302008D5302008F4
S315000010E01D1D000095272008952720089B58539220
S315000010F0CD2E20089527200895272008C12E2008E8
S315000011009527200895272008218C2008398C20084F
S31500001110618B2008798B2008918B2008A98B2008E9
S31500001120C18B2008D98B2008F18B2008098C200858
S315000011309527200895272008952720089527200819
S315000011409527200895272008952720089527200809
S3150000115095272008952720089527200895272008F9
S315000011609527200895272008250C00000000000080
S315000011700000000000000000000000000000000069
S3150000118010B500F009FB084C00F018FB074BA168EE
S315000011904FF4B672184609F003FCA06000F0CEFBCF
S315000011A0BDE8104000F0FAB800ED00E000040000D1
S315000011B00348044B834202D0034B03B118477047E0
S315000011C08052000080520000000000000548064BD7
S315000011D01B1AD90F01EBA301491002D0034B03B12F
S315000011E0184770478052000080520000000000003F
S315000011F010B5064C237843B9FFF7DAFF044B13B159
S315000012000448AFF300800123237010BD8052000014
S31500001210000000006CE1200808B5054B1BB105492C
S315000012200548AFF30080BDE80840FFF7CFBF00BF19
S3150000123000000000845200006CE1200810B5084C44
S3150000124023684FF0FF3118690BF0EAF9054809F0F9
S3150000125001FA2368BDE8104018690BF0E9B900BF30
S31500001260E83D0100C0D6200838B5164C23684FF07B
S31500001270FF31054618690BF0D3F9134809F0EAF96E
S31500001280236818690BF0D4F945F21A01284606F0CE
S3150000129077FE236805464FF0FF3118695DB10BF004
S315000012A0BFF90A48294609F06DF923681869BDE8AF
S315000012B038400BF0BDB90BF0B3F9054845F21A01F9
S315000012C0F1E700BFE83D0100CFD62008EBD62008A5
S315000012D007D7200830B589B000231846CDE9053375
S315000012E0CDE90333CDE90133194A1A49009306F0D3
S315000012F023FF1948194C07F06FFC054680B1236897
S315000013004FF0FF3118690BF08BF91548294609F0A3
S3150000131039F92368186909B0BDE830400BF088B97F
S3150000132006F000FE236805464FF0FF31186925B127
S315000013300BF076F90B482946E9E70BF071F90A48F4
S3150000134009F088F9236818690BF072F9FEE700BF07
S31500001350692220083D2220081BD72008E83D01000D
S3150000136025D720083DD7200858D7200810B5094CA6
S3150000137023684FF0FF3118690BF052F9064809F05F
S3150000138069F9236818690BF053F9BDE81040FFF7B7
S31500001390A1BF00BFE83D010073D7200808B500F0E3
S315000013A062F8FFF7E3FF00F06BF8002008BD08B510
S315000013B000F016FA00F078FD04F068FA06F054FD25
S315000013C000F060F800F03EFBBDE808400BF03CB9C9
S315000013D00BF02AB97047000008B504F0E3FB054896
S315000013E004F0FCFB044804F011FCBDE808400BF0D7
S315000013F023B900BF9C520000840500007047704767
S315000014000120704708B5FFF7FBFF831E584258417D
S3150000141008BD05F043B8EFF3108072B6704710B9F7
S3150000142062B6BFF36F8F7047EFF311800C2383F31F
S315000014301188704780F31188BFF36F8F704703469A
S3150000144038B10020814204D01A5C02B970470130DD
S31500001450F8E770474FF0FF31FFF7F1BF08B50BF023
S3150000146007F9002008BD08B5FFF7A1FFFFF7B2FF97
S31500001470FFF7B2FFFFF7C2FFBDE80840FFF7BFBFA7
S31500001480FFF7A6BF70B5134C134D23685E6C00239F
S31500001490194628460222B04723681E6800231946CB
S315000014A002222846B04723680C4DD3F8C0300520E9
S315000014B0984723685E6C0023194628460A22B047DF
S315000014C023681C6800232846A4460A22BDE870400B
S315000014D0194660470001300000C00424000013468E
S315000014E00FB404B07047000050B1064B06491B8884
S315000014F0D1F89C2422F4FC521343C1F89C34704763
S31500001500024BF3E7FC2D010000A00524FE2D01008F
S3150000151030B5114B93F85830013BDBB2FD2B8FB041
S3150000152018D80E4D0FCD6C460FC40FCD0FC40FCD7E
S315000015300FC495E8030084E80300094C6846D4F814
S3150000154044370BF013FE05F031F8D4F84437002089
S315000015500FB030BD0120FBE700021F0858021F082C
S3150000156000800524134B0168D3F84437F0B50127F2
S31500001570013900D2F0BDD0F808C04668CCF38455D6
S31500001580C5EBDC62346801320023013A0CD203FA5F
S3150000159005F203EA0C03C3F3150324EA0202AB4087
S315000015A0134333600830E3E707FA02FE43EA0E030B
S315000015B0EBE700BF0080052408B51848FFF7D2FF07
S315000015C01748FFF7CFFF05F01BFB05F045FB05F0BD
S315000015D04FFB05F061FB05F06BFB1248FFF7C2FFFE
S315000015E01148FFF7BFFF1148FFF7BCFF1048FFF790
S315000015F0B9FF1048FFF7B6FF0F48FFF7B3FF0F48D4
S31500001600FFF7B0FF0E48FFF7ADFF0E48FFF7AAFF42
S31500001610BDE808400C48FFF7A5BF00BF2C520000EC
S3150000162090510000CC4D0000984E00008C4E0000FA
S31500001630AC4E00006C4D0000604D0000544D0000A3
S31500001640A84D0000F04D0000E44D000010B5254CFB
S31500001650FFF7B2FF94F8040600F00100FFF758FF09
S315000016604FF4C023C4F86C34D4F840311E4843F418
S315000016700023C4F84031D4F8403143F00103C4F8E4
S315000016804031D4F8403143F00203C4F84031FFF74B
S3150000169069FF16491648D1F8103543F00203C1F820
S315000016A01035636923F400336361636943F480335F
S315000016B06361D0F84027D0F87837C2F34342023A44
S315000016C023F4F07343EA4213C0F87837D1F8943420
S315000016D043F40023C1F89434236943F4601323616F
S315000016E010BD00BF00800424B84F000000A00524F0
S315000016F00080052408B550B10748FFF733FF0748B7
S31500001700FFF730FF0648BDE80840FFF72BBF054846
S31500001710FFF728FF0448F6E700500000A850000035
S315000017209C500000745000002050000010B51C2290
S315000017300021044609F07EF8074B084A0849C4E927
S31500001740002344F2020363812A23A373054BC4E9F1
S315000017500413054BA36110BD317A0300A872EB2870
S31500001760D8007800C70020000100050010B58AB037
S3150000177003A8FFF7DBFF064B01225B6A00925C6B56
S3150000178000231A4603A94FF09050A0470AB010BD97
S3150000179000013000FEE7FEE7054B064A06498B428C
S315000017A000D3704752F8040B43F8040BF7E700BF69
S315000017B00004000090E3200880520000064B074812
S315000017C0DA1C121AC11E22F00302994288BF0022B7
S315000017D0002109F02FB800BF20410100805200000F
S315000017E038B5374B374A1A60374B384A93F80636BE
S315000017F0374C03F00F030F2B15BF364B4FF000632A
S31500001800D3F89312D3F837140CBF11601160324A23
S315000018100CBFD3F83634D3F89232136005F046F88D
S3150000182005F046F82D4BDB694FF08061D3F8803028
S315000018304FF08C409847E369022060F30E33E36172
S31500001840274BDA696FF30202DA6105F0ABF81E4B3B
S315000018501A6A042161F302021A621A6A1207FCD597
S31500001860A369022262F38403A361A3691B04FCD566
S315000018701C4B1D4D5A6E6FF341025A665A6E6FF33A
S3150000188000025A660AF014FF184B19480D4A1861EF
S315000018904FF4FA44D86117485C6200211C624FF489
S315000018A00044C3E90022C3E90B05C3E90F2299608E
S315000018B05961DA609C625A635864996138BD00BF09
S315000018C0782F0100005A6202008004241C2F0100B8
S315000018D00081042400001F08182F010000013000B9
S315000018E00086042400840424002D3101282F0100E1
S315000018F000B4C4040048E8014FF0E02384B0D3F8F4
S31500001900402F0192D3F8442F02920199094A91423D
S315000019100DD10299084A914209D1D3F8882D039234
S31500001920039A42F470020392039AC3F8882D04B016
S31500001930704700BF210011101100001113B50023DC
S31500001940009301932F4BD3F810250092009A009232
S315000019502D4A116821F00F01116011681160D3F84A
S315000019609C1421F46071C3F89C14D3F804170191F8
S315000019700199C3F80415D3F8001701910199C3F82A
S315000019800015D3F8101541F01C01C3F81015D2F854
S31500001990024014F48074FAD11C48436943F480333E
S315000019A04361436964F351434361FFF7A5FF184B55
S315000019B04FF080725A60174BC0F84031164B5A6888
S315000019C064F3C3025A60036A0E4A43F48033036227
S315000019D0036A43F400330362D2F8943443F40023D9
S315000019E0C2F89434036943F4601303610B4B1A681D
S315000019F042F400221A601A6842F480221A6002B089
S31500001A0010BD00BF00A005240000052400800424AA
S31500001A1000003041030008000081042400840424EF
S31500001A2020F04040012802D0022805D07047034A22
S31500001A301368013313607047014AF9E7802F0100EC
S31500001A407C2F010010B5124CE3689847A368114833
S31500001A509847236902209847A46A01211520A047C8
S31500001A6001211620A0474FF4E1310120A0470A4C7E
S31500001A70206810B90AF0F0FD2060084B4FF4805240
S31500001A80C3F88020BFF34F8FBFF36F8F10BD00BF29
S31500001A908CD82008212A2008842F010000E100E0CC
S31500001AA013B5094C00238DF804302360074B012140
S31500001AB09B6901A8984723681BB19DF8040002B0F2
S31500001AC010BD00F013FBF6E77C2F01008CD8200830
S31500001AD013B5094C8DF8070000232360074B01213D
S31500001AE05B690DF10700984723680BB102B010BD82
S31500001AF000F0FCFAF8E700BF802F01008CD8200820
S31500001B0003681B780022202B04D0093B042B01D943
S31500001B10D0B270470368591C01605B780132F2E766
S31500001B200120704708B507F0EDF8162303604FF063
S31500001B30FF3008BD08B507F0E5F816230360FEE799
S31500001B4070B50D4614460AF0A3FD022805D10C4BCC
S31500001B504FF0FF3118680AF063FD2E46731BA3424F
S31500001B6009DB0AF095FD022803D1054B18680AF037
S31500001B705FFD204670BD16F8010BFFF7A9FFEDE7E4
S31500001B80842F01004FF0FF3070474FF400534B6035
S31500001B900020704701207047002070470FB42DE9E0
S31500001BA0F0438BB012AB002453F8046B01938DF80D
S31500001BB01040FFF775FF0D288DF81000F7D00A28A2
S31500001BC0F5D0002425460134142C2ED0FFF768FFEB
S31500001BD004F128036B440D2803F8180C01D00A28D9
S31500001BE0F0D105F128030DEB0305002305F8163C9B
S31500001BF004AB03939DF81030019F0296002B00F072
S31500001C004E810025029B1B78002B3BD0DDF80C9003
S31500001C1099F80060002E35D002A8FFF771FF044640
S31500001C2038B103A8FFF76CFFECE700238DF82430EA
S31500001C30DEE7029A1346517813F8010B0293252822
S31500001C4001D1252907D18E421CD109F101030232A7
S31500001C5003930292D6E726462046A0461A7806F057
S31500001C607C01002A67D100B10293002967D109E0FF
S31500001C70692A51D01ED8632A53D011D8392A07D8D9
S31500001C802F2A35D8E8B20BB0BDE8F04304B0704750
S31500001C90582AF7D146F0200601334FF0100833E0FA
S31500001CA0642AEFD146F4005646F0200601334FF081
S31500001CB00A0829E06F3AD1B20929E3D8092AE1D8FE
S31500001CC001A151F822F000BF0D2D2008852C200817
S31500001CD0852C2008852C2008312D2008852C2008ED
S31500001CE0A92C2008852C2008852C2008952C200856
S31500001CF0002CC7D10A211A78303A01FB042413F8C4
S31500001D00012F303A092AF6D90120A7E746F0200626
S31500001D1001334FF00808F7E746F0200601338846FE
S31500001D20F2E7012C46F0040638BF01240133EBE745
S31500001D3046F00806FAE700299AD000B10293002C73
S31500001D4008BF632408291BD0202940D0042999D133
S31500001D5057F8042B4946144400200E780B460131EF
S31500001D600EB938B94EE702F8016B94424FF0010004
S31500001D70F3D10B46994503933FF444AF013541E750
S31500001D8003A8FFF7BDFEDDF80CC057F8042B664626
S31500001D9014440021307810F0DF0F334606F10106B7
S31500001DA001D161B92EE7A0F1090EBEF1040FF8D9F1
S31500001DB002F8010BA2424FF00101EBD133469C45DC
S31500001DC003933FF41FAF374B00221A70D6E703A8E0
S31500001DD0FFF796FE039BB8F1000F10D0B8F1100F75
S31500001DE017D11A78302A14D15A7802F0DF02582A0D
S31500001DF00FD102330393023C4FF0100809E01A7822
S31500001E00302A16D15A7802F0DF02582AF1D04FF064
S31500001E100808039B1A782B2A0ED02D2A0FD10133DE
S31500001E200393013C4FF0FF31039A0020144484468B
S31500001E3014E04FF00A08ECE701330393013C01215B
S31500001E40F2E7A9F14103052B02D910B3039220E072
S31500001E50A9F1370315E00CFB083C012092F800902D
S31500001E609646B9F1000FF0D0A242EED0A9F13003A8
S31500001E70DBB2092B06D9A9F16103052BE1D8A9F13B
S31500001E805703DBB2984502F10102E4D808B1CDF858
S31500001E900CE057F8043B0CFB01F119606EE74FF0BC
S31500001EA0FF35EFE6882F0100044802231421C218EB
S31500001EB001334B2B82F80013F9D1704700E100E0A3
S31500001EC0014802F0EBB800BF3CD82008014802F0F8
S31500001ED0E5B800BFECD72008014802F0DFB800BF24
S31500001EE09CD72008064B1868002382B262F30F03C2
S31500001EF0000C60F31F4382B0184602B0704700BF63
S31500001F0000D92008014B1868704700BFB4050000CF
S31500001F10014803F01FBB00BFB4050000014903F0F0
S31500001F20D7BA00BFB4050000014803F0AFBA00BF3E
S31500001F30B405000037B504460B200D4600F04CF9F9
S31500001F40064B1B680193064B00930246054B294638
S31500001F50204602F011FE03B030BD00BFFC33010085
S31500001F609C050000B4050000014802F001BE00BF58
S31500001F70B4050000014802F0F8BD00BFB40500003A
S31500001F807FB5104BD3E90354B2F5806F2E883ABF64
S31500001F9002F1FF33C3F3090340F2FF3363F30D1677
S31500001FA02E80258863F30D15074B25801B68029349
S31500001FB0064B0193064B0093024B02F09DFD04B0C5
S31500001FC070BD00BFB4050000FC33010014300100F1
S31500001FD09C0500000D4B1A69B1F5806F13B538BF2B
S31500001FE001F1FF33148834BFC3F3090340F2FF3312
S31500001FF063F30D14064B14801B680193054B009385
S31500002000024A054B02F0DAFC02B010BDB40500002E
S31500002010FC330100143001009C0500000D4BDA680A
S31500002020B1F5806F13B538BF01F1FF33148834BFA3
S31500002030C3F3090340F2FF3363F30D14064B148018
S315000020401B680193054B0093024A054B02F008FCFE
S3150000205002B010BDB4050000FC33010014300100CD
S315000020609C050000024B034A1B68034902F050BB63
S31500002070FC3301009C050000B4050000034B044935
S3150000208004484FF400129A6402F0F2BA0084042461
S315000020909C050000B405000007B5064B0193064BEE
S315000020A00093064A064B074902F052FA03B05DF860
S315000020B004FB00BF84330100FC3301009C050000D3
S315000020C0001C0624B4050000014802F019B900BF3F
S315000020D03C060000014802F013B900BFF8050000F5
S315000020E0014802F00DB900BFB4050000FFF7F8BFC4
S315000020F0354BDFED366AD3F8102242F04002C3F8C2
S31500002100102207EE900AD3F81022F4EEE67A42F097
S315000021101002F1EE10FA07EE101A82B0C3F8102280
S3150000212006DCF0EE086AB4EEE67AF1EE10FA08D5AF
S31500002130D3F8102242F02002C3F81022002002B089
S3150000214070479FED237AF4EEC77AF1EE10FA10D5B8
S31500002150D3F810226FF30302C3F81022D3F810222B
S315000021606FF38612C3F81022D3F810226FF304120D
S31500002170E2E777EEC77ADFED176A134A87EEA67AAB
S31500002180F7EE007A77EE277AFCEEE77ACDED017A64
S315000021909DF80430F6EE007A77EE277A07EE103ACD
S315000021A0B8EE477AB4EEE77AF1EE10FAC2BFFCEE6B
S315000021B0E77ACDED017A9DF80430D2F8101263F378
S315000021C00301C2F81012B9E7003804243333334050
S315000021D0CDCCCC3F0AD7A33DD0B50E2800F27C82E9
S315000021E0DFE810F00F005A009500D00004010F013F
S315000021F04101710181019001B701DC010702320240
S3150000220054024FF08C43DB6903F00703042B41D8DB
S31500002210DFE803F0033A34373D00844B9A6C013A09
S31500002220052A37D8DFE802F0032224222628586C34
S315000022304FF08C43DC69DB69C4F3C30413F0005F21
S3150000224060D094B106F0C4FE064620460F4606F05E
S31500002250BFFE774B002206F07FFD02460B46304656
S31500002260394607F059F807F0C7F9D0BDD86ADFE755
S31500002270D86BDDE7186BDBE7586BD9E76B4BD86992
S31500002280D6E76A4B5869D3E7684B9868D0E7674B3F
S31500002290D868CDE70020CBE74FF08C43DB69C3F36A
S315000022A0C213042B2CD8DFE803F003251F222800D5
S315000022B05E4B9A6C013A052A22D8DFE802F0030D3C
S315000022C00F0D1113586C4FF08C43DC69DB69C4F3B6
S315000022D0832413F0804FB3E7D86AF4E7D86BF2E7AC
S315000022E0186BF0E7586BEEE7504BD869EBE74F4BAE
S315000022F05869E8E74D4B9868E5E74C4BD868E2E744
S315000023000020E0E7002CB0D0B0FBF4F0ADE74FF0D2
S315000023108C439B69C3F3C233052B31D8DFE803F046
S31500002320032124272A2D414B9A6C013A052A27D8E6
S31500002330DFE802F0030F110F1315586C4FF08C43B2
S315000023409B69C3F3C32213F4F04F8ED0B0FBF2F0B7
S315000023508BE7D86AF2E7D86BF0E7186BEEE7586BB5
S31500002360ECE7324B9868E9E7304B1869E6E72F4B04
S315000023705869E3E72D4BD869E0E72C4BD868DDE7D1
S315000023800020DBE74FF08C439B6AC3F34243032BE9
S315000023902AD8DFE803F002202326244B9A6C013A60
S315000023A0052A21D8DFE802F0030F110F1315586C28
S315000023B04FF08C439A6AC2F3055312F07C7F3FF4C8
S315000023C054AF5B004CE0D86AF2E7D86BF0E7186BC5
S315000023D0EEE7586BECE7154B5869E9E7134B98683D
S315000023E0E6E7124BD868E3E70020E1E74FF08C42BE
S315000023F0936903F00703032B25D8DFE803F0081BD6
S315000024001E214FF08C42D36FC3F34223F3E7074BF1
S31500002410D86A91699369D2698C05C3F3C503C2F37F
S31500002420007212D5B2B9DBB91FE700BF282F010031
S315000024300000E03F824BD869EBE7814B5869E8E73B
S315000024407F4B9868E5E70020E3E71AB9002BB8D17F
S3150000245040080AE7D9077FF508AF022B7FF605AFDC
S31500002460B0FBF3F001E74FF08C439B69C3F30263C3
S31500002470042B00F23181DFE813F0DF0005001D00B8
S31500002480200023006E4B9A6C013A052A00F2248143
S31500002490DFE812F0060008000B0008000D00F70048
S315000024A0586CE2E6664BD86ADFE6D86BDDE6644B2D
S315000024B0186BDAE6624B9868D7E6614BD869D4E6C2
S315000024C05F4B5869D1E64FF08C42936913F4802F25
S315000024D05B4B0CBF58699868936992691202C3F303
S315000024E0C343B3D59FE74FF08C439A6A12F4806FCB
S315000024F0534A0CBF9069D0689A6AC2F3C52312F496
S31500002500FC3F5CE74F4A93691B0F062B1FD8DFE899
S3150000251003F0040C0F1215181B00494B58689369F9
S31500002520C3F3464213F47E0F0FE7454B186AF6E7EE
S31500002530434B586AF3E7424B986AF0E7404BD86A38
S31500002540EDE73F4B186BEAE73D4BD868E7E700201D
S31500002550E5E73C4AD369C3F34303052B1CD8DFE800
S3150000256003F0030C0F121518354B5868D369C3F3E3
S315000025704713002B7FF425AF77E6314B186AF5E752
S315000025802F4B586AF2E72E4B986AEFE72C4BD86A26
S31500002590ECE72B4B186BE9E70020E7E7294A136ABB
S315000025A0C3F34303072B22D8DFE803F0040C0F1212
S315000025B015181B1E224B5868136AC3F3421213F0F8
S315000025C0E00FC2E61E4B186AF6E71D4B586AF3E7A2
S315000025D01B4B986AF0E71A4BD86AEDE7184B186B55
S315000025E0EAE7174BD868E7E7154B586BE4E7002096
S315000025F0E2E7144B1B6BC3F34303062B6CD801A213
S3150000260052F823F021362008273620082D362008D8
S3150000261033362008A5342008AF3420083936200880
S31500002620074B586821E6064B186A1EE6044B586AA3
S315000026301BE6034B986A18E6014BD86815E600BFFF
S31500002640282F010000140424244B5B6BC3F34303BF
S31500002650082B41D801A252F823F000BF21362008EA
S31500002660273620082D36200833362008A5342008C2
S31500002670AF342008393620088136200887362008EE
S31500002680174B586BF1E5164B9869EEE5134AD36A7A
S31500002690C3F34303062B1DD8DFE803F0040A0D102D
S315000026A0131619000E4B5868D36AC3F34713BAE6DC
S315000026B00B4B186AF8E70A4B586AF5E7084B986A15
S315000026C0F2E7074BD86AEFE7054B186BECE7044BCC
S315000026D0D868E9E70020E7E70020C6E500140424EF
S315000026E0282F0100024B1B68D3F8BC30184700BFE7
S315000026F000013000024B1B68D3F8CC30184700BFEE
S3150000270000013000024B1B68D3F8EC30184700BFBD
S3150000271000013000024B01219B69C0B2184700BF7F
S31500002720B0340100FFF7F6BF1346054A126810B42D
S31500002730546C0A46A44600215DF8044B604700BF6E
S315000027400001300010B54FF4006004F0EBF8094CBE
S31500002750094B4FF000725A6422782AB9074B084891
S315000027601B6A01219B6A9847237843F00103237073
S3150000277010BD00BF003801000084042400013000B1
S3150000278000140424104B114A1B7F82B0012BADF8B4
S3150000279004000F4BC0B24FF400610DD9116020B98F
S315000027A0D3F808220A43C3F808225A68002042F0E8
S315000027B001025A6002B0704711600028F5D1D3F8C3
S315000027C0082242F40062EEE7B034010000E100E0C6
S315000027D0003804242DE9F04F224B234893F81CE0DF
S315000027E0224B1A7800231C4602F59875D9B28E45FD
S315000027F00CD8DFF880800023A8F5107902F5907CCC
S31500002800DAB2964509D80020BDE8F08F30F81510E9
S315000028108C4238BF0C460133E8E743B929F81C302F
S315000028200133EDE7B5F820B0594489B20AE0002734
S315000028301FFA83FABEB2B442F2D900220C4D1046FA
S3150000284035F8021FA14203D2B142EBD1013292B256
S31500002850013080B25045F3D30137002AEAD128F877
S315000028601360DDE7B0340100D0340100AC34010060
S315000028700E37010010370100012800D17047C30749
S3150000288001D44008F8E70020704703460120834240
S3150000289008DC00EBD072A3EB6203B3EBA00FB8BF6A
S315000028A0400870474000F2E707EE100ADFED087AAD
S315000028B0084837EE277AF7EE006AC6EE877AFCEE0E
S315000028C0E77A17EE903A834228BF034618467047C8
S315000028D095BFD633404B4C0084B0F0B506AC84E8C7
S315000028E00E00DFED957A002123AC0DF16B050A464B
S315000028F00B46CEB2B04200F2AF80002B00F0A380B0
S31500002900B0EE007AF4EEC77AF1EE10FAB0EE047A81
S3150000291005DBF4EEC77AF1EE10FA00F1DF80F4EE93
S31500002920C77AF1EE10FAB0EE087A05DBF4EEC77A54
S31500002930F1EE10FA00F1D880F4EEC77AF1EE10FA53
S31500002940B1EE007A05DBF4EEC77AF1EE10FA00F18B
S31500002950CE80F4EEC77AF1EE10FAB1EE047A05DB1A
S31500002960F4EEC77AF1EE10FA00F1C480F4EEC77AFD
S31500002970F1EE10FA07DBB1EE087AF4EEC77AF1EE63
S3150000298010FA00F1BA80B1EE0C7AF4EEC77AF1EEE5
S3150000299010FAB2EE007A05DBF4EEC77AF1EE10FA21
S315000029A000F1AE80F4EEC77AF1EE10FAB2EE027ADA
S315000029B005DBF4EEC77AF1EE10FA00F1A480F4EE2E
S315000029C0C77AF1EE10FA06DBB2EE047AF4EEC77AB5
S315000029D0F1EE10FA6FD4B2EE087AF4EEC77AF1EEA1
S315000029E010FA06DBB2EE0C7AF4EEC77AF1EE10FAC4
S315000029F06ED4B3EE017AF4EEC77AF1EE10FA06DB86
S31500002A00B3EE027AF4EEC77AF1EE10FA63D4B3EEBF
S31500002A10097AF4EEC77AF1EE10FA06DBB3EE0A7A1B
S31500002A20F4EEC77AF1EE10FA70D9B3EE0B7AF4EE43
S31500002A30C77AF1EE10FA06DB9FED407AF4EEC77A1C
S31500002A40F1EE10FA74D9DFED3E7A9FED3E7A002A58
S31500002A5018BFF0EE477A65E015F8016FA6F1140C81
S31500002A60BCF1020F2F7C0FD894ED007AB4EEE77A12
S31500002A70F1EE10FA03DD0133DBB2F0EE477A0D2FEB
S31500002A8016D00131043434E7A7F10A0CBCF1020F69
S31500002A900CD894ED007AB4EEE77AF1EE10FA03DD85
S31500002AA00133DBB2F0EE477A182EE9E7182EE6D1AD
S31500002AB00132D2B2E5E7DFED247A9AB39FED217AAF
S31500002AC0F4EEC77AF1EE10FA23D5F0EE477A29E054
S31500002AD0DFED1E7AF1E7DFED1E7AEEE7DFED1D7A18
S31500002AE0BAB1DFED187A1DE0DFED1B7AF8E7DFED0E
S31500002AF01B7AF5E7DFED1A7AF2E7DFED1A7AEFE7F0
S31500002B00DFED197AECE7DFED197AE9E7DFED187A00
S31500002B1042B19FED0B7AF4EE477AF1EE10FA48BF18
S31500002B20F0EE477ABDE8F04017EE900A04B0704721
S31500002B30DFED107AECE700BF0000000000004C4219
S31500002B4095BFD6338BE16A36ACC5A735EFE60836B6
S31500002B509F9D42362E5A823301A90C3437F85934D8
S31500002B602439EC3434580F35AD186335883E8A3530
S31500002B70B1B49D36F2DD1C3770B50D4616460446D7
S31500002B80D0B9FFF7BFFDAA4807222146FFF7CCFDC3
S31500002B90002D40F0AA81012E00F09F810B2C1DD044
S31500002BA00C2C40F0F5800520FFF7ACFDA04807226D
S31500002BB00521FFF7B9FD98E0012818D10220FFF79B
S31500002BC0A1FD9B4807220221FFF7AEFD002D76D11D
S31500002BD0012E00F082810B2C40F0DA800320FFF7F3
S31500002BE091FD072203219248FFF79EFD96E00228F9
S31500002BF00ED10420FFF786FD072204218C48FFF73B
S31500002C0093FD002D00F06681012D40F0778155E19E
S31500002C10032805D10620FFF775FD07220621EDE7FB
S31500002C20042805D10820FFF76DFD07220821E5E7F6
S31500002C30052805D10A20FFF765FD07220A21DDE7F1
S31500002C4006280CD17B4B20225A601920FFF752FD33
S31500002C501920FFF747FD78480E221921B4E7072807
S31500002C601ED1744B20225A601B20FFF743FD1B2008
S31500002C70FFF738FD0E221B216F48FFF755FD002D8B
S31500002C8000F02881012D40F0D980012E00F0198135
S31500002C900C2C21D10520FFF735FD07220521A2E7DF
S31500002CA0082840F0FD80634B20225A601D20FFF764
S31500002CB021FD1D20FFF716FD0E221D21DCE70B2C42
S31500002CC01ED0012D40F01A81012E00F0FA800C2C46
S31500002CD0E0D00D2C00F0C1800E2C50D00F2C6FD000
S31500002CE0102C75D12EE0022D40D0032D52D1012E8D
S31500002CF059D00E2C70D00F2C62D0102C30D121E080
S31500002D000320FFF7FFFC4A4807220321FFF70CFDCB
S31500002D10022D2BD0032D03D1012E44D0002070BDEF
S31500002D20042D00F0A480052DDAD1012E40F0A380F9
S31500002D300720FFF7E7FC07223D481146FFF7F4FCA2
S31500002D40102C5ED13B4B20225A601A20FFF7D2FC92
S31500002D501A20FFF7C7FC38480E221A21FFF7E4FCB9
S31500002D60112C50D0072D5CD1012E88E0012ED5D133
S31500002D7069E0012E67D00D2C0FD00E2CBBD1092097
S31500002D80FFF7C0FC2A4807220921FFF7CDFCCAE756
S31500002D900D2C62D00E2C68D1F1E70B20FFF7B2FCA8
S31500002DA007220B211FE70B20FFF7ACFC2048072268
S31500002DB00B21FFF7B9FC8FE70E2CE0D00F2CB2D118
S31500002DC00720FFF79FFC072219481146FFF7ACFCC6
S31500002DD0062DC5D1012E4FE00920FFF793FC0722EF
S31500002DE0092100E70920FFF78DFC11480722092178
S31500002DF0FFF79AFC7FE70720FFF784FC07221146BE
S31500002E00F1E6112C0DD10B4B20225A601C20FFF746
S31500002E1071FC1C20FFF766FC07480E221C21FFF7F9
S31500002E2083FC122C2FD0082D7FF478AF012E28E0DA
S31500002E3000C004240000304100001346022D7FF438
S31500002E4054AF012E99D10520FFF75CFC2E480722CE
S31500002E500521FFF769FC0D2CAED10B20FFF752FCC4
S31500002E60294807220B21FFF75FFC042DA6D1012E6E
S31500002E70B8D00F2CBFD0102C3FF464AF112CC2D0A9
S31500002E80122C7FF44BAF214B20225A601E20FFF7F5
S31500002E9031FC1E20FFF726FC1D480E221E21A3E64C
S31500002EA00A287FF475AE0120FFF72CFC164807228E
S31500002EB00121FFF739FC012D7FF415AF012E7FF4B8
S31500002EC02DAF0320FFF71EFC0F4807220321FFF753
S31500002ED02BFC65E6012E7FF421AF0120FFF712FCE3
S31500002EE0094807220121FFF71FFC0B2C3FF408AF0E
S31500002EF0012D3FF4E9AE0C2C3FF455AE022D3FF404
S31500002F0038AF0D2CA9D0F0E600C0042400003041F3
S31500002F10000013462DE9F0410F29BDF81850BDF801
S31500002F201C609DF820809DF824E055D845EA0604EB
S31500002F30B4F5806F50D22B4C01F1100701F1400C13
S31500002F4044F8273001F150079A4244F8212024F82A
S31500002F501C5024F8176041D0B8F1000F17D001F1CA
S31500002F60300802EB4502C0F8D42144F8282045EA8F
S31500002F70C12242F40048C0F8D881D0F8D881C0F800
S31500002F80D821D0F8D82144F82C8044F82720BEF167
S31500002F90000F02D10020BDE8F08101F1600205EBCF
S31500002FA046052B44C0F8D43144F82230CB0203F551
S31500002FB08063334343F40042C0F8D82101F1700224
S31500002FC0D0F8D85144F822508031C0F8D831D0F822
S31500002FD0D83144F82130DDE70120DCE742F2021067
S31500002FE0D9E700BFD03401000F2910B528D892B117
S31500002FF0144A01F1300452F82440C0F8D44101F1DA
S31500003000400452F82440C0F8D84101F1500452F867
S315000030102420C0F8D8218BB10A4B01F1600253F885
S315000030202220C0F8D42101F17002803153F8222009
S3150000303053F82130C0F8D821C0F8D831002010BD8F
S315000030400120FCE7D034010010B5274B27485A6809
S315000030505A6842F001025A60D3F8082242F48062AC
S31500003060C3F8082203F5B4331A68026852BBD3F8D2
S31500003070402442F46752C3F840241D4AD2F8023075
S31500003080DC05FBD41B4BD3F80427D107FBD5D3F8BB
S315000030900427D207FBD4D3F84824174C174B2168D2
S315000030A01A60930803F4F8530B43910001F07C0176
S315000030B012020B4302F47832134343F08103236078
S315000030C0012303600C4B1A680A4BC3F84424084AD0
S315000030D0D2F8023013F48073FAD1034A516863F3CD
S315000030E00001516010BD00BF00380424A034010067
S315000030F00000052400A00524A8340100A434010022
S3150000310084B070B52DED028B82B008AC84E80F0058
S31500003110444C6E9AA2610D9A43499DF8B531BDF8AB
S3150000312014012377013A8A4278D20DA901229342EB
S3150000313009D8012B6FD19DF8B43173B101280FD98D
S3150000314042F2061060E00E4651F8045F3668B5425A
S3150000315064D8002D62D00132E9E7B0F5806FEFD276
S31500003160FFF7F0FA314B32485A689FED328A6FF317
S315000031708A225A60DA686FF31842DA60DA68042144
S3150000318061F30902DA605A682B4942F480625A6098
S31500003190FEF7AEFF294B5B686360FFF755FF03F050
S315000031A0B1FD208103F0A2FD208203F0B1FDC0F342
S315000031B00D0307EE103AB8EEC77A830BC7EE086A1E
S315000031C007EE903AF8EEE77A77EEA67AC4ED037A40
S315000031D003F092FDC0F30D0307EE103AB8EEC77A7E
S315000031E0830BC7EE086A01A807EE903AF8EEE77A75
S315000031F0012377EEA67A0193C4ED057A04F08EFBDF
S31500003200003818BF0120404202B0BDEC028BBDE879
S31500003210704004B07047013B0F2B90E742F2041058
S31500003220F2E700BFB0340100A025260000380424D0
S315000032303333334000007A44CDCC4C40282F010074
S3150000324084B010B52DED028B82B006AC84E80F0079
S3150000325042499DF81820424C0A706C99A16106A952
S3150000326001EB82013F4849699DF8AD312377013969
S3150000327081426FD2012B6AD106AB03EB4202B2F850
S31500003280F4309DF8AC2122B1012B05D942F206108B
S3150000329056E0B3F5806FF9D2FFF754FA324B334854
S315000032A05A689FED338A6FF38A225A60DA686FF3A1
S315000032B01842DA60DA68042161F30902DA605A68B2
S315000032C02C4942F480625A60FEF712FFFFF7BCFEFB
S315000032D0294B5B68636003F015FD208103F006FD52
S315000032E0208203F015FDC0F30D0307EE103AB8EE89
S315000032F0C77A830BC7EE086A07EE903AF8EEE77ACC
S3150000330077EEA67AC4ED037A03F0F6FCC0F30D035C
S3150000331007EE103AB8EEC77A830BC7EE086A01A823
S3150000332007EE903AF8EEE77A012377EEA67A019354
S31500003330C4ED057A04F0F2FA003818BF01204042C5
S3150000334002B0BDEC028BBDE8104004B07047013BF3
S315000033500F2B9AE742F20410F2E700BFAC340100EB
S31500003360B0340100A025260000380424333333404E
S3150000337000007A44CDCC4C40282F01000F2902468C
S3150000338010B54FF001000CD8D2F8CC4100FA01F389
S315000033902343D2F8CC119BB263F30F01C2F8CC11D0
S315000033A0002010BD0F29024610B54FF001000DD8C0
S315000033B0D2F8CC4100FA01F343EA1443D2F8CC1117
S315000033C09BB263F31F41C2F8CC11002010BD30B58B
S315000033D00F299DF80C402CD81F2A2AD80F2B28D845
S315000033E0012C26D845686D060FD5090134B145185C
S315000033F0AC6B44EA835343F08063AB6301448B6B4D
S3150000340043EA42438B63002030BD5CB1D0F808121A
S3150000341041F40071C0F80812D0F8081263F348119D
S31500003420C0F80812D0F8083262F30403C0F8083274
S31500003430E9E70120E8E7000029B9D0F8083261F38E
S31500003440CB23C0F80832064B5B68DB0741BF4368F5
S315000034506FF300034360002058BF4FF0FF30704702
S3150000346000380424C1B2024882B002B0FFF7E4BFBC
S31500003470003804240F2915D80D4B5A68520603D478
S31500003480D3F8DC31002B0FDAD0F8DC2101238B4096
S315000034901343D0F8DC219BB263F30F02C0F8DC21A2
S315000034A000207047012070474FF40450704700BF5A
S315000034B000380424B1F5007F14D2B2F5806F11D222
S315000034C043686FF38A234360C36861F31843C3609C
S315000034D0C36862F30903C360436843F480634360CF
S315000034E000207047012070470F2925D8012A05D1F1
S315000034F0436A6FF3D753436200207047022A0BD109
S31500003500436A6FF300034362436A6FF30413436233
S31500003510436A6FF3C303EEE7084BD3F8DC31002BA5
S31500003520EADA436A0122C3F3CF138A4023EA02018F
S31500003530436A61F3D613DEE701207047003804249E
S315000035400F2903464FF0010014D81A6A00FA01F158
S3150000355089B2186AC2F30F220A4362F3172018626F
S315000035601A6AC2F30F2222EA0102196A62F31721CC
S31500003570196200207047000010B510B1012804D070
S3150000358010BDBDE81040FFF7DDB84FF4006003F052
S31500003590E3F90A4A13786FF300031370DBB2002BCA
S315000035A0EED1074B07484FF000729A64064B1B6A30
S315000035B0BDE81040DB6B0221184700BF0038010050
S315000035C000840424001404240001300013B50D4BBC
S315000035D0ADF804004FF40062C3F88020BFF34F8FAC
S315000035E0BFF36F8F01210322084604F06BFA0446ED
S315000035F028B90120FFF7C0FF204602B010BD4FF0EA
S31500003600FF30FAE700E100E04368064A61F3492328
S315000036104360D2F8403443EA4143C2F840340020C4
S31500003620704700BF00A0052484B02DE9F04F2DEDB2
S31500003630048BEDB07AAC84E80F009DF87D3362937D
S315000036404FF4C47201237DA9684669939DF87C53A3
S31500003650DFF894A307F0A4F994E80E006298FFF748
S315000036603BF908EE900AFFF71FF9DAF8048007EE37
S31500003670900A07EE108AF8EE677AB8EE477AB7EE48
S31500003680008A88EE079A88EE277AC7EE097A17EE3F
S31500003690900A05F0BFFC08F0FBFE05F0ADFFC8EE92
S315000036A0897A84B217EE900A05F0B4FC08F0F0FEB1
S315000036B005F0A2FF86B2B44208BF01347F9F08BF5F
S315000036C0A4B2002D65D1B8FBF4F3AAF80060AAF8FD
S315000036D00240DFF818A363930DF5FC7B5146AAF26E
S315000036E05E284FF00209629AEBB29A4200F2C88055
S315000036F0B74DDFF8F4B2FFF76DF82246314628469B
S31500003700FFF7D8FE01212846FFF77EFF6B68B14E12
S3150000371043F000636B606B6843F040036B606B685B
S315000037206FF341036B603323C5F8E4316B6843F0F4
S3150000373004036B60D5F8DC3143F00043C5F8DC3197
S315000037400DF2DA23659306F18103A6AF06F13E0A70
S3150000375066930DF5F47800246791629AE3B29A4273
S3150000376000F2D7809C4B6A9300229C4B6B9369A90D
S31500003770012004F00BF910B1452840F02581699924
S315000037806AAA012004F070F9003818BF01204042EF
S3150000379069E0204605F02CFCB8FBF7F78046384672
S315000037A0894605F015FC02460B464046494605F09B
S315000037B0FBFE00285ED1AAF80060AAF80240224665
S315000037C031468348FFF776FE01218148FFF71CFF4B
S315000037D07F4B5A6842F000625A605A686FF386124D
S315000037E05A606A1E012A5A684FF0000194BF42F0DF
S315000037F0020265F341025A60C3F8E4115A6842F0C6
S3150000380004025A60D3F8DC2161F3DF72C3F8DC21CD
S315000038109DF8E9219DF83C029DF84C125AB1D3F867
S31500003820084262F34924C3F80842D3F8084261F318
S315000038304814C3F80842664CD4F8083260F304030F
S31500003840C4F80832FFF798F92A4600212046FFF708
S315000038504BFEBAF80220DAF80430B3FBF2F3604A02
S315000038600020C2F880326DB0BDEC048BBDE8F04F8D
S3150000387004B07047BAB2AAF80060AAF802209FE71F
S315000038809DBB639BB3FBF7F39BB2012B8CBFA8F8E0
S315000038906032A8F86092629B012B08D04A881046D5
S315000038A0FEF7EAFF18B91046FEF7EFFF4880DFED96
S315000038B04D7A524600231FFA85FC32F8020F07EEB6
S315000038C0100AB8EE477A0133C8EE076A9BB2634521
S315000038D077EEA67AF1D9F4EEC87AF1EE10FA0DDC9D
S315000038E0013502310BF1040BFDE6DBE90032B3FBD7
S315000038F0F2F20B8813FB02F34B80CCE7524600230F
S3150000390032F8020F01339BB2400063451080F7D9AD
S31500003910E6E798F8549098F86430649318F8013FF5
S31500003920639300934A462146649B2846FFF74FFD62
S3150000393036F8021F328C012A08D0A30003F1105377
S3150000394003F58723A3F83811C3F8782121462846C2
S31500003950FFF790FDDDE963214846FFF70DF92146A3
S315000039602846FFF71FFD659B33F8029F6593679B0B
S31500003970CDE90099CDE902332146D7F8A4307A6E15
S315000039802846FFF7C7FA21462846FFF7F7FC00222C
S3150000399021462846FFF7A8FDBBF80220DBF80430D5
S315000039A0B3FBF2F3328CB3FBF2F34AF8043F57F859
S315000039B0043FA6F8D090CAF85030669B639A03F885
S315000039C0012F01346693C8E64FF0FF304BE700BF86
S315000039D0003804240E370100153720082537200843
S315000039E0D034010000000000B03401002E37010081
S315000039F084B02DE9F04F2DED048BEBB078AC84E864
S31500003A000F0021469DF87533DFF810A311F80C8BD3
S31500003A1062934FF4C4720123684667939DF87463FA
S31500003A208AF8008006F0BCFF94E80E006298B44D58
S31500003A30FEF752FF08EE900AFEF736FFD5F804B0FF
S31500003A4007EE900A07EE10BAF8EE677AB8EE477AF4
S31500003A50B7EE008A88EE079A88EE277AC7EE097ACB
S31500003A6017EE900A05F0D6FA08F012FD05F0C4FD2F
S31500003A70C8EE897A84B217EE900A05F0CBFA08F000
S31500003A8007FD05F0B9FD87B2BC4204BF0134A4B2FC
S31500003A90002E55D1BBFBF4F378AA649308F1040316
S31500003AA002EB830397492F806C800DF5F8796593B7
S31500003AB0629AF3B29A4200F2C180934EFEF78AFEF2
S31500003AC0224639463046FFF7F5FC01213046FFF71E
S31500003AD09BFD73688D4C43F000637360736843F01D
S31500003AE04003736073686FF3410373603323C6F852
S31500003AF0E431736843F004037360D6F8DC3143F0B5
S31500003B000043C6F8DC310027629AFBB29A4200F203
S31500003B1007817F4B689300227E4B699367A901203A
S31500003B2003F034FF10B1452840F07B81679968AAFD
S31500003B30012003F099FF003818BF0120404271E0D0
S31500003B4078AB03EB88082046D8F81430BBFBF3FBB0
S31500003B5005F04EFA80465846894605F039FA02467F
S31500003B600B464046494605F01FFD002861D12F80CF
S31500003B706C80224639466448FFF79CFC0121624866
S31500003B80FFF742FD604B5A6842F000625A605A687D
S31500003B906FF386125A60721E012A5A684FF00001AE
S31500003BA094BF42F0020266F341025A60C3F8E41180
S31500003BB05A6842F004025A60D3F8DC2161F3DF72DE
S31500003BC0C3F8DC219AF8002002F5F0726A4492F8F4
S31500003BD0540092F8641052785AB1D3F8084262F34E
S31500003BE04924C3F80842D3F8084261F34814C3F8DD
S31500003BF00842454FD7F8083260F30403C7F8083285
S31500003C00FEF7BAFF9AF80040324621463846FFF7DB
S31500003C106BFCA0346A886B68B3FBF2F33B4A42F84C
S31500003C20243000206BB0BDEC048BBDE8F04F04B02F
S31500003C3070471FFA8BF22F806A809BE708F598730E
S31500003C40DFF8C8B06393002E50D1659B649A5B6819
S31500003C50B2FBF3F39BB2639A012B98BF02232BF8B6
S31500003C601230629B012B08D04A881046FEF704FEEC
S31500003C7018B91046FEF709FE488078AB03EB4803F7
S31500003C80B0B2B3F8F430012B01BF08F598723BF8D7
S31500003C9012309B082BF81230639B3BF8133007EE6B
S31500003CA0903AF8EE677A002288EE277ADFED1A7AE4
S31500003CB001321FFA82FC844577EE877AF8D9F4EE52
S31500003CC0C87AF1EE10FA0CDD002201321FFA82FCEE
S31500003CD05B0084459BB2F8D90C4808F5987220F829
S31500003CE012300136023109F10409E1E6D9E9003260
S31500003CF0B3FBF2F20B8813FB02F34B80B1E700BF74
S31500003D00B03401002E37010000380424D0340100FD
S31500003D10153720082537200800000000AC340100C4
S31500003D209AF80010639101F5F0736B44304693F8EE
S31500003D30548093F8649093F801B0CDF800B04B46E8
S31500003D404246FFF744FB639901F5907334F813007C
S31500003D5001F5987334F81320012A08D08B0003F17B
S31500003D60105303F58723A3F83801C3F878213046AA
S31500003D70FFF780FB5A4649464046FEF7FDFE9AF895
S31500003D80008030464146FFF70DFB78AB03EB480356
S31500003D9078AAB3F8F43002EB88000122CDE90222BA
S31500003DA0CDE900334146D0F85431D0F814213046DD
S31500003DB0FFF7B0F89AF8008030464146FFF7DEFA82
S31500003DC0414600223046FFF78FFB08F1A0026988C2
S31500003DD06B68B3FBF1F308F59871013734F81110ED
S31500003DE0B3FBF1F344F8223078AA02EB480208F557
S31500003DF0C473B2F8F42024F8132078AA02EB8802E0
S31500003E0008F1B403D2F8B42044F8232008F5F07280
S31500003E1004EB08030DEB020898F8012083F8C02292
S31500003E2072E64FF0FF30FDE6D0F8E03143F00103D3
S31500003E30C0F8E031002070472DE9F341374B9A6A0C
S31500003E400192019A16020DD5426A1502C2F3C050BC
S31500003E5008D45A6A42F400025A62314B9B69042123
S31500003E60984718E0019BDC0709D52C4A136A43F0F2
S31500003E70010313622A4B05219B690020F0E7019C90
S31500003E8014F080740BD02548012100F095F8254BDD
S31500003E9002201B689847002002B0BDE8F0811F4B46
S31500003EA05A68500603D4D3F8DC31002B24DA1E4DB1
S31500003EB01A4E1B4F019BE21DD340D90717D5214649
S31500003EC03046FFF73DFB2B785FFA84F8B3FA83F2AE
S31500003ED0520941463046FFF787F8BB6913B1002106
S31500003EE0404698472B78B3FA83F35B092B7001346D
S31500003EF0102C05F10105DDD1084B5A689207CAD48A
S31500003F00D3F8DC11C90FC6D15A6842F004025A60D0
S31500003F100198034BC0B29B69A2E700BF0038042496
S31500003F20B034010004380100903401000148FFF765
S31500003F3083BF00BF00380424030548BF20F4006097
S31500003F40174B58BF40F40060D1B11A8A93ED057A39
S31500003F50821A07EE902AF8EEE77A67EE877AFDEE88
S31500003F60E77A17EE903A18B2B0F5805F11DA0028BA
S31500003F7012DDB0F5006F10DBA0F5006000B27047EF
S31500003F801A8993ED037A821A07EE902AF8EEE77AF9
S31500003F90E3E740F6FF70EFE7002000F50060EDE78D
S31500003FA0B0340100406921B11146C0F30B00FFF7A0
S31500003FB0C3BFC0F30B007047436A01291DBF43F01E
S31500003FC002034362436A43F0807318BF43F004035D
S31500003FD04362002070472DE9F04F92F806C092F830
S31500003FE002A05378D5781679577992F807E092F8B7
S31500003FF0088092F8099092F80AB0D47A127802B33F
S315000040005B0643EA4B7343EA8A5343EA495343EA5E
S31500004010085343EA4E4343EA0C4343EA4733090154
S31500004020026843EAC62301F1105143EA852301F5EC
S31500004030872142F0004243EA44230260CB63BDE895
S31500004040F08F02686CF3C712026002686AF34F329F
S315000040500260026863F313420260036865F341037A
S315000040600360036866F383030360036867F306135C
S31500004070036003686EF30A230360036868F3CB23C7
S315000040800360036869F30C33036003686BF314532E
S315000040900360036864F300030360D0E7F7B50268C2
S315000040A0136B916A0446906C019013F00E0F019801
S315000040B00BD0936B0093D36B0093136C0093009B10
S315000040C0E36A01225A71022024E00D0740F189803B
S315000040D0D80640F18680216B486800287FD0CB68DF
S315000040E00D68AB42EFD26A4D2D78012D3FD192F883
S315000040F060205D1CCD60C254236BD9681A6891425A
S315000041005ED32268D36A23F01003D362E36A0022E7
S315000041101A710120E36A1A68002A60D023685D4993
S315000041208B4200F0B08001F57F018B4200F0AD803C
S315000041305949591A4B424B415B0040EA83709047FC
S3150000414094F83430032B0BD1544B1B781B0103F12D
S31500004150105303F5982301225A605A68012AFCD1AC
S31500004160E36A1A79002A3AD000221A7137E0022D42
S315000041700BD1126E5D1CCD60C254236BD968586892
S315000041804D1CDD60120A4254B6E7042DB4D1126EFE
S315000041905D1CCD60C254236BD96858684D1CDD6028
S315000041A0130A4354236BD96858684D1CDD60130C01
S315000041B04354236BD96858684D1CDD60120EE2E744
S315000041C094F8342002F0FD02012A08D19B6833B925
S315000041D02368A5221A662268936ADF07FCD403B017
S315000041E0F0BD4E07FBD5DD07F9D5216B8D68002D97
S315000041F0F5D00B6908688342BFF465AF24480078A0
S3150000420001281ED1581C0861EB5C82F8603094F8D6
S31500004210343003F0FD03012B03D12268936AD807DB
S31500004220FCD4236B1A691B689A42D8D32368DA6ACE
S3150000423022F00102DA621B68C3F30123012BCED1FF
S3150000424064E7022809D15E1C0E61E85C02330B614B
S31500004250AB5D40EA03231366D9E70428D7D15E1C79
S315000042600E61981CEF5C086115F806C0DE1C0E6135
S31500004270285C043300040B61AB5D40EA0C20384334
S3150000428040EA0363E7E7002357E7012355E700BF4A
S31500004290093801000000024400080424083801001F
S315000042A010B4034C2468646CA4465DF8044B604764
S315000042B000013000024B1B68D3F8B830184700BF26
S315000042C000013000024B1B68D3F8C030184700BF0E
S315000042D000013000024B1B68D3F8C830184700BFF6
S315000042E000013000024B1B68D3F8E830184700BFC6
S315000042F000013000014BDB685B69184700013000A4
S31500004300F0B5436885B00024B3F1884F01940546A3
S31500004310029403940BD0774A934208D0764A93428C
S3150000432000F0D180754C181B4442444164009A68E1
S315000043300192019A02F00602062A4FEA84742CD1F1
S315000043405B690293029B990710D56A6913686BB182
S3150000435001215171202098476B6993F82820032A80
S3150000436004D193F826300BB144F01004029B5A078F
S3150000437007D56A69136823B1012111724FF40070E1
S315000043809847029B1B0740F1A0806A69136823B116
S315000043900121D1714FF480709847019B9E071DD56E
S315000043A06B691E6910201A6A6968964209D09F696E
S315000043B00138BF5C0F6002F101021A62F3D1964226
S315000043C00CD14A6822F002024A60002283F82620B5
S315000043D01B681BB144F0010420469847019B58070F
S315000043E038D56B691A68002A34D06A685169C907DA
S315000043F025D511685A69DB69D1546B69DA69D968C0
S3150000440001328A42DA611AD169684A6822F00102E9
S315000044104A6093F82820023A0021012A197164D8CB
S3150000442093F8272083F82710022A5ED0032A59D052
S31500004430012A01D144F001041B68204698476B69A4
S315000044401A683AB1D969DB68994203D044F040044E
S3150000445020469047019B1A074AD16B689B690393D4
S315000044606B78DB0608D5039BDF0705D56B6944F43B
S3150000447080641B68204698476B785E0608D5039BC8
S31500004480980705D56B6944F400641B682046984775
S31500004490AB78D90708D5039B5A0705D56B6944F451
S315000044A000541B682046984795F90130002B1FDA07
S315000044B0039B1B071CD56B691B6844F4805005B031
S315000044C0BDE8F0401847012431E7029BDF067FF57F
S315000044D064AF6A691368002B3FF45FAF01219171E5
S315000044E0802059E744F00404A6E744F00204A3E759
S315000044F005B0F0BD00010044000002450018042488
S3150000450030B504460AB3B0F5E10F1ED853688025CE
S31500004510DD608900B1FBF0F1D3F8C0006FF3050050
S31500004520C3F8C000002018605860D860DD60C1F391
S3150000453087151D60C1F3873501F03F015D60C3F843
S31500004540C010D8605369DC6230BD40F20160FBE701
S315000045502DE9F7434E69DDF8289096F8295015F0B5
S3150000456001050C46174698466ED1C6E90005357218
S3150000457086F8265086F824504B68B3F1884F02D04F
S31500004580354A934212D1354B10229A60344BA26BB6
S31500004590DB69019294F834200092D3F8A45094F881
S315000045A03C20002301214FF08C40A84762682D4B28
S315000045B09A4215D103F15F4303F5213310229A6025
S315000045C0274BA26BDB69019294F834200092D3F852
S315000045D0A45094F83C20012319464FF08C40A8477C
S315000045E06268214B9A4210D103F5D8434FF400126A
S315000045F05A641B4B228F1B6A0092DD6994F83C209B
S3150000460094F8353019480121A847E3680BB92369A6
S31500004610B3B16568B5F1884F08D00F4B9D4205D000
S31500004620104B9D4202D0104B9D4211D10C4BDB68C2
S315000046304A461D680B9B41463846A847C9F8000004
S315000046406369012283F82920002003B0BDE8F083C6
S315000046504FF0FF30F9E700BF000100440084042456
S315000046600001300000000245001804240014042450
S3150000467038B54368B3F1884F04460D4602D01F4A49
S31500004680934207D11E4BDB690021D3F8E8304FF087
S315000046908C40984762681B4B9A4207D1184BDB69DE
S315000046A00121D3F8E8304FF08C4098476268164BEA
S315000046B09A4205D1124B15481B6A0821DB6B9847B5
S315000046C0E3680BB923698BB16368B3F1884F08D0EF
S315000046D00A4A934205D00B4A934202D00A4A9342B1
S315000046E009D1074BDB6828465B6898476369002059
S315000046F083F8290038BD4FF0FF30FBE70001004486
S3150000470000013000000002450018042400140424AF
S3150000471070B50C4615461E4620B1022872D06FF0C1
S31500004720030070BD91F9080000280CDB43094749D6
S3150000473000F01F0020330122824041F82320BFF3FE
S315000047404F8FBFF36F8FE06862696368B0B192F80C
S3150000475026209AB1B3F1884F0BD03D4A934208D038
S315000047603C4A934205D03C4A934202D04FF0FF3078
S31500004770D7E7007932462946FFF7BCFDD4E90402A3
S31500004780636890B1127982B1B3F1884F08D0304A8C
S31500004790934205D02F4A934202D02F4A9342E5D145
S315000047A0007932462946FFF7A5FD63682B4AB3F127
S315000047B0884F05D026498B4202D026498B421DD10F
S315000047C01023D36094F90830002B09DB5A09012124
S315000047D003F01F03994002F160031C4A42F82310BC
S315000047E0636900225A601A7283F8262093F82920FA
S315000047F022F0020283F82920002092E74FF40013EA
S315000048009364DFE74A6992F82930D907AED513F0E9
S315000048100203F1D161684B605360137282F826304F
S315000048204FF44073138594F90830002BE4DB03F052
S315000048301F015B099B0003F1604303F561430122FD
S315000048408A40C3F880211A60D6E700BF00E100E085
S3150000485000010044000002450018042400840424DA
S315000048602DE9F04F8FB00DF11C0A06460D46904615
S3150000487000211C225046DDF864901F4605F0DAFF41
S31500004880002E00F08D80002D00F08A80D8F81420CC
S3150000489092F82930580704D44FF0FF300FB0BDE826
S315000048A0F08F92F82630002B7DD1012482F8264025
S315000048B0D8F80CE013629661D8F804301561BEF1A1
S315000048C0000F59D0B3F1884F099450D0374A93421C
S315000048D04DD0374A93424CD0364A9342DCD12246D9
S315000048E00324CDE90C4201210B91DEF80000DEF82D
S315000048F008C007919EF80410BEF800E0CEF3091E2A
S315000049006EF30D1000F0070BBBF1020F01BFBA6882
S3150000491094686BF302049460274C0EF101029542F1
S31500004920E26838BF05F1FF3ED2F808B0189ACDF814
S31500004930149038BFCEF3090E6EF30D10CDE903C205
S31500004940CDE9010A009532463846D8470130A3D052
S31500004950D8F80C00E3680079DB6839464A46984780
S31500004960E36849461B6938469847002096E71922AE
S31500004970B7E71B220224B4E7596989060ED45A68A0
S3150000498042F002025A60F0E74C1C1462715C196036
S315000049900138F4D0116AA942F6D1F0E71020F9E700
S315000049A06FF004007AE76FF0010077E7000100443A
S315000049B00000024500180424000130002DE9F04FE4
S315000049C08FB0984607AB81460F461846164600211B
S315000049D01C22DDF864A005F02DFF0346B9F1000F97
S315000049E07BD0002F79D0726992F82910490704D438
S315000049F04FF0FF300FB0BDE8F08F117901296FD06D
S31500004A0000250124546015723069D760C2F81490ED
S31500004A10D561726800285BD0B2F1884FCDE90854A1
S31500004A2051D031498A424ED030498A424DD0304920
S31500004A308A42DDD10324B0F800B0D0F800C0D0F827
S31500004A4008E0CBF3091BCDE90C456BF30D1C0121E6
S31500004A500B9107910CF007050021022D0A910179AF
S31500004A6001BFD8F80800846865F302048460214C0D
S31500004A700BF101008742E06838BF07F1FF3B85680C
S31500004A801898CDF814A038BFCBF3090B6BF30D1CA7
S31500004A90CDE903E0CDE901C300974B464046A84760
S31500004AA00130A5D03069E3680079DB68524641469B
S31500004AB0984796F8403023B9E36851461B6940464B
S31500004AC09847002096E71825B5E71A250224B2E78D
S31500004AD0536843F001035360F3E76FF0040089E77E
S31500004AE06FF0010086E700BF0001004400000245A8
S31500004AF000180424000130002DE9F3470746DDE9DC
S31500004B000AA8DDF83090084616461D461FB311B3B5
S31500004B100AB35B6993F82920520723D595F84040DC
S31500004B20F4B12A7812F0060F1CD0032283F827204E
S31500004B303146CDE9008953462A46FFF73FFF60B963
S31500004B4053462A4631463846CDE90A8902B0BDE8C1
S31500004B50F047FFF785BE6FF0040002B0BDE8F087AE
S31500004B602046FAE74FF0FF30F7E74369186A7047C7
S31500004B704369D869704700002DE9F0471C465B6918
S31500004B80924693F8292080469007DDE90867894612
S31500004B9040F15E845FFA88F5A5F11501052900F25A
S31500004BA07B81DFE811F006005A00C200DB00050138
S31500004BB03901B9F1000F4BD06368B3F1884F05D0C6
S31500004BC08F4A934202D08F4A934228D1E36958789C
S31500004BD03F280CD94038C0B2FFF784FBE3698A4806
S31500004BE05A78403A0623D2B20021FFF759FBE3690F
S31500004BF0D87808B1FFF766FBE3695878A0F1190386
S31500004C00052B01D8FFF756FBE3695878FFF762FBDF
S31500004C10E1697E488B784A780978FFF741FB62683C
S31500004C207B4B9A420AD1E3695878FFF75BFBE1694F
S31500004C3075488B784A780978FFF732FB626992F8F3
S31500004C40293043F0080382F829300020BDE8F087B8
S31500004C5022F0080283F82920F7E7B9F1000F61D0A6
S31500004C606368B3F1884F05D0654A934202D0654A1E
S31500004C7093423AD1236A58783F2816D9654B1B6868
S31500004C8040380121D3F8F030C0B29847236A5878EB
S31500004C904038C0B2FFF726FB236A5B485A78403A91
S31500004CA00623D2B20021FFF7FBFA236AD87808B1AF
S31500004CB0FFF708FB236A5878A0F11903052B01D8E2
S31500004CC0FFF7F8FA534B226A1B685078D3F8D430B2
S31500004CD001219847236A5878FFF7FCFA216A4B4866
S31500004CE08B784A780978FFF7DBFA6268484B9A4274
S31500004CF012D1484B226A1B685078D3F8F030012154
S31500004D009847236A5878FFF7EDFA216A3E488B7870
S31500004D104A780978FFF7C4FA626992F8293043F0B5
S31500004D20100390E722F0100294E7B9F1000F0DD0BE
S31500004D3093F82620002A40F08F836168CA6842F003
S31500004D404002CA60012283F826207EE76168CA68AD
S31500004D5022F04002CA6083F8269076E760684268CF
S31500004D6022F002024260D4E90352E2B9B5B10D2243
S31500004D70826093F826309BB1B0F1884F08D0204B63
S31500004D80984205D01F4B984202D0214B984207D13A
S31500004D9028793A463146FFF7ADFA01E005238360EC
S31500004DA063690022CFE70D228260002DE1D1F7E78B
S31500004DB060682569426822F0010242604DB9E368E5
S31500004DC02BB903238360636900221A713DE70B2325
S31500004DD0F8E70B2282601B79002BF4D0B0F1884FE4
S31500004DE008D0074B984205D0064B984202D0084B94
S31500004DF09842E8D128793A463146FFF77BFAE2E74E
S31500004E00000100440000024500C0042400001346CF
S31500004E1000180424000130006268E068516821F03F
S31500004E200301516098B193F8263083B1B2F1884FEF
S31500004E3008D07B4B9A4205D07A4B9A4202D07A4BE5
S31500004E409A4204D100793A463146FFF753FAD4E93B
S31500004E500402636840B9E368E3B9072362689360B4
S31500004E60636900221A716EE712799AB1B3F1884F1D
S31500004E7008D06B4A934205D06A4A934202D06A4AE6
S31500004E80934207D100793A463146FFF733FA236950
S31500004E90002BE0D00F23E1E76A1E132A00F2E0821E
S31500004EA0DFE812F05F0014007100AD00C8003001A9
S31500004EB0DE02DE02DE02DE02DE02DE02DE02DE02EC
S31500004EC0DE023601170030013901300194F8403016
S31500004ED013B96FF00600B9E66268514B9A42F8D1F1
S31500004EE0237899073DD5A36958783F280CD94038CF
S31500004EF0C0B2FFF7F7F9A3694C485A78403A06233F
S31500004F00D2B20021FFF7CCF9A369D87808B1FFF730
S31500004F10D9F9A3695878A0F11903052B01D8FFF731
S31500004F20C9F9A3695878FFF7D5F9A16940488B7884
S31500004F304A780978FFF7B4F963689A6D42F001027E
S31500004F409A659A6D42F002029A6594F841109A6D3C
S31500004F50002951D042F010029A659A6D42F0200263
S31500004F609A6508F4E066B6F5A06F00F0ED8000F2F1
S31500004F70D680002E00F0EB80B6F5807F00F0E98049
S31500004F806FF0080062E66268254B9A42A1D1237849
S31500004F905A079ED5A36958783F280CD94038C0B225
S31500004FA0FFF7A0F9A36921485A78403A0623D2B2FE
S31500004FB00021FFF775F9A369D87808B1FFF782F9E0
S31500004FC0A3695878A0F11903052B01D8FFF772F9E8
S31500004FD0A3695878FFF77EF9A16915488B784A7856
S31500004FE00978FFF75DF963689A6D42F001029A65E8
S31500004FF09A6D6FF34102A7E761F30412ACE72178DB
S315000050000B07AED563681A6C42F001021A641A6C7B
S315000050108F074CBF6FF3410242F002021A64A0E709
S3150000502000010044000002450018042400C00424C6
S31500005030000013466368B3F1884F03D09C4A93423D
S315000050407FF447AF2378DE067FF543AFE36A5878EF
S315000050503F280CD94038C0B2FFF744F9E36A9548B7
S315000050605A78403A0623D2B20021FFF719F9E36ACB
S31500005070D87808B1FFF726F9E36A5878A0F1190342
S31500005080052B01D8FFF716F9E36A5878FFF722F9DE
S31500005090E16A89488B784A780978FFF701F9236B2A
S315000050A058783F280CD94038C0B2FFF71BF9236B5C
S315000050B080485A78403A0623D2B20021FFF7F0F82A
S315000050C0236BD87808B1FFF7FDF8236B5878A0F169
S315000050D01903052B01D8FFF7EDF8236B5878FFF776
S315000050E0F9F8216B74488B784A780978FFF7D8F875
S315000050F02378D8067FF5EDAE6268136943F0400366
S3150000510013612EE7257815F020053FF42AAFE0E677
S3150000511083F8249099E5257815F04005F5E7B6F56E
S31500005120C06F18D0B6F5E06F7FF42AAF00260227CD
S3150000513008F44053B3F5805F10D0B3F5005F1BD081
S3150000514073B16FF0090081E500260027F0E7032719
S31500005150EEE70926F9E700260127E9E747F01807F1
S3150000516008F44043B3F5804F09D0B3F5004F06D09D
S315000051703BB16FF00A0069E547F00807F0E747F032
S31500005180040708F44032B2F5003F636800F0E88097
S3150000519009D8002A00F03181B2F5803F00F09280F4
S315000051A06FF00B0052E5B2F5403FF9D1627802F09C
S315000051B01802182A74D1B3F1884F05D03C4A93429D
S315000051C002D03E4A934251D1636A58783F280CD99F
S315000051D04038C0B2FFF786F8636A36485A78403AD4
S315000051E00623D2B20021FFF75BF8636AD87808B1CC
S315000051F0FFF768F8636A5878A0F11903052B01D800
S31500005200FFF758F8636A5878FFF764F8616A2A4826
S315000052108B784A780978FFF743F8A36A58783F28CD
S315000052200CD94038C0B2FFF75DF8A36A21485A7816
S31500005230403A0623D2B20021FFF732F8A36AD878A3
S3150000524008B1FFF73FF8A36A5878A0F11903052BB8
S3150000525001D8FFF72FF8A36A5878FFF73BF8A16A41
S3150000526015488B784A780978FFF71AF86268144B64
S315000052709A4215D1A36A5878FFF734F8A16A0D4807
S315000052804A788B780978FFF70BF8636A5878FFF746
S3150000529029F8616A07488B784A780978FFF700F899
S315000052A0238803F4C073B3F5C07F54D078E700BFFA
S315000052B00001004400C0042400001346000002451B
S315000052C0001804246278110740D5B3F1884F05D041
S315000052D0694A934202D0694A934228D1A36A587810
S315000052E03F280CD94038C0B2FEF7FCFFA36A6448D9
S315000052F05A78403A0623D2B20021FEF7D1FFA36ABC
S31500005300D87808B1FEF7DEFFA36A5878A0F1190332
S31500005310052B01D8FEF7CEFFA36A5878FEF7DAFF11
S31500005320A16A58488B784A780978FEF7B9FF62680F
S31500005330554B9A420AD1A36A5878FEF7D3FFA16A61
S315000053404F488B784A780978FEF7AAFF94F900301F
S31500005350002BBFF625AF6268136943F022034BE0CA
S315000053606278D20640D5B3F1884F05D0424A9342BF
S3150000537002D0424A934228D1636A58783F280CD912
S315000053804038C0B2FEF7AEFF636A3D485A78403AED
S315000053900623D2B20021FEF783FF636AD87808B1EC
S315000053A0FEF790FF636A5878A0F11903052B01D820
S315000053B0FEF780FF636A5878FEF78CFF616A314812
S315000053C08B784A780978FEF76BFF62682E4B9A4213
S315000053D00AD1636A5878FEF785FF616A29488B7897
S315000053E04A780978FEF75CFF6378DB077FF5D8AE6D
S315000053F06268136943F020031361AB1E012B05D8C5
S3150000540018F4802F30D118F4002F31D1D4F804804D
S31500005410D8F8103023F01003C8F810302246514651
S315000054204846FFF76DF86369012183F82850C8F8EC
S315000054300810C8F80C70C8F8CC60D8F8AC2061F336
S31500005440C402C8F8AC2093F8292042F0040201E413
S315000054504FF0FF30FFF7FABB6FF00100FFF7F6BB26
S315000054606FF00300FFF7F2BB6FF00C00FFF7EEBB27
S315000054706FF00D00FFF7EABB000100440000024593
S3150000548000C004240000134600180424426943683F
S31500005490107A5969137981F080015B00C1F3C0115C
S315000054A003F002030B435179C90001F008010B43D5
S315000054B09179090101F010010B43D179490101F0FD
S315000054C0200180010B4300F04000184370470000A4
S315000054D04B6993F829305B0733D54B68002B33D0E3
S315000054E040B94A7812072FD51A6922F002021A61CA
S315000054F000207047012806D14A78100724D51A697A
S3150000550042F00202F3E702280CD1B3F1884F02D031
S315000055100F4A934218D14A78910615D51A6922F096
S315000055200102E4E70328E3D1B3F1884F02D0084A29
S31500005530934209D14A78920606D51A6942F00102C9
S31500005540D5E74FF0FF3070476FF00300704700BF9C
S3150000555000010044426830B5044612B3436993F82B
S31500005560293013F004001DD065789269A07815F0F3
S31500005570100318BFC2F3001315F0400118BFC2F3A1
S31500005580401110F0010018BFC2F380102C060DD593
S31500005590C2F3C01243EA410343EA820343EAC0006E
S315000055A030BD1046024601460346F3E70022F1E706
S315000055B0194BDB6919072CD4184BD3F8742122F048
S315000055C00202C3F87421D3F874210A2000BF0138FF
S315000055D010F0FF00FAD1D3F87421520707D4D3F89C
S315000055E07421D10703D4D3F86C21920709D40B4A4E
S315000055F0D2F8743143F00203C2F8743100F00100AE
S3150000560070470222C3F87021D3F87021A622C3F88E
S3150000561078210120F2E700BF000008120080004652
S31500005620064BD3F8742142F00202C3F87421022219
S31500005630C3F86C21A62002F059BC00BF00800046CA
S3150000564041F20273984221D011DC41F20453984290
S315000056501CD005DCF8B101280CBF212001207047C1
S3150000566041F2017398420CBF11200120704742F2AB
S31500005670041398420CD042F2061398420AD042F222
S31500005680031398420CBF2120012070472120704748
S31500005690282070472B207047014BDB695B6E18474B
S315000056A000013000014BDB699B6B1847000130009D
S315000056B0014BDB695B6A184700013000454B994294
S315000056C070B50C4615460AD9434B4FF400125A6280
S315000056D0424B10229A615A6C42F010025A64012819
S315000056E042D0022861D060BB3D4B3E4EDB690121B2
S315000056F0D3F8EC30A422084698473B4B9C60FFF752
S31500005700D7FF3A4B9D4205D106F0C6FF736823F4D6
S31500005710404373604FF45943A6F86030304BDB6961
S315000057202A469B6821464FF08C40984750B9304B2B
S315000057309C420BD82F4B4FF40032DA664FF480228E
S31500005740DA660020BDE87040FFF77ABF2A4B9C421C
S31500005750F7D9284BDA6E9203F3D44FF480229A6677
S315000057604FF400329A66ECE71F4B1E4E5C61FFF762
S3150000577093FF1E4B9D4205D106F08EFF736823F4FE
S31500005780404373604FF45943A6F8A030144BDB69CD
S315000057902A469B6D21464FF08C4098470028D1D170
S315000057A0592CC7D95A2CD4D1CBE70F4B9C61FFF7A4
S315000057B079FF06F071FF0B4B4FF45942A3F8E02036
S315000057C0074BDB692A46DB6B21464FF08C40984736
S315000057D0B8E700BFFF0D270700002820008000461D
S315000057E00001300000801846282F0100005A62028E
S315000057F07F4A5D0500840424BF8C6C05052870B5BE
S3150000580005460E4637D81D4B99420DD81C4A536A99
S3150000581023F4001353621B4B9A6922F010029A611B
S315000058205A6C22F010025A64002211464FF08C4046
S3150000583001F07EFA0446FFF703FF0246E0B9DDB148
S31500005840042D13D1104A31460120FFF737FF04B269
S315000058502046FFF7F5FE024670B929464FF08C4008
S3150000586001F066FABDE87040FFF7EABE022DEFD1FF
S31500005870054A3146E9E72122104670BDFF0D27078C
S315000058800000282000800046005A620213B506F088
S3150000589003FF03214FF08C4001F02AFB06F0FCFECB
S315000058A0032001F0A9FC0C490220FFF7A7FF0B4AD1
S315000058B00B490120FFF702FF0A4B0122DB69009228
S315000058C0D3F8A04000231A4602214FF08C40A0478F
S315000058D0002002B010BD00BF0095BA0A005A62024D
S315000058E00068890900013000012808B50CD002289B
S315000058F012D0C8B919B1FFF7DBFE002008BD0B4B6B
S31500005900DB691B6A9847F8E711B1FFF7C5FEF4E7B4
S31500005910064BDB695B6DF5E711B1FFF7C3FEECE7FC
S31500005920024BDB695B6BEDE72120E7E70001300006
S3150000593013B500F09BF9022802D1002002B010BD79
S3150000594002214FF08C4001F0D3FA022001F054FC02
S3150000595000210846FFF752FF0028EFD1064B01222F
S31500005960DB690092D3F8A0400246034601464FF099
S315000059708C40A047E1E700BF0001300037B50D4677
S31500005980062800F29280DFE800F004047F450A8CC6
S3150000599004000224FCF756F8204603B030BD06F09A
S315000059A07BFE03214FF08C4001F0A2FA06F074FE54
S315000059B0032001F021FC85B13D490220FFF71EFFBF
S315000059C004460028E6D13B4A3B490120FFF776FE14
S315000059D004460028DED102250EE038490220FFF7F2
S315000059E00DFF04460028D5D1324A34490120FFF77D
S315000059F065FE04460028CDD1314B0122DB690092B9
S31500005A00D3F8A04000231A4629464FF08C40A04701
S31500005A100024BFE706F040FE03214FF08C4001F062
S31500005A2067FA06F039FE032001F0E6FB8DB1254941
S31500005A300220FFF7E3FE04460028ABD11D4A2149A8
S31500005A400120FFF73BFE04460028A3D101230225CF
S31500005A5014E029462846FFF7D1FE164A04461146A9
S31500005A602846FFF72BFE002C94D1124A012011463E
S31500005A70FFF724FE044600288CD10223104AD2697F
S31500005A800093D2F8A040BDE701F0CEF80E4B9A691C
S31500005A90142161F315429A610C4A0D4BD3620D4AEB
S31500005AA01360FFF745FF044674E7212472E700BF41
S31500005AB00095BA0A005A62020068890900E1F505F4
S31500005AC00001300000B4C40400810424282F010022
S31500005AD0002D3101782F0100134BDB691B0713B52D
S31500005AE020D4124BDA69022161F30202DA61DA6923
S31500005AF061F31242DA614FF08C439A6D002AFCDAA8
S31500005B009A6A6FF303029A62094B0122DB690092DB
S31500005B10D3F8A04000231A4619464FF08C40A04700
S31500005B2002B010BD0020FBE700000812008104242B
S31500005B3000013000F8B58B1EDBB2022B9CBF174A62
S31500005B40D45C00F1FF3306460F4688BF0024052BC0
S31500005B5006D8DFE803F00F0C0903121544F002041F
S31500005B600F4B1D687DB9F8BD44F00804F8E744F012
S31500005B702004F5E744F04004F2E744F08004EFE740
S31500005B8044F48074ECE76B681A68144203D05B68CF
S31500005B903946304698472D68E4E700BF04D9200807
S31500005BA01038010038B50A4D2C786CB972B6094820
S31500005BB006F062FD084B1C601C7100F051FC0123CD
S31500005BC02B7062B6204638BD62B61220FBE700BFD6
S31500005BD014380100103801000A380100054A12780D
S31500005BE01AB120B1002100F04FBA112070472220CF
S31500005BF0704700BF14380100034B1B780BB100F04F
S31500005C00AFBA1120704700BF14380100044A127859
S31500005C1012B118B100F0B8BA1120704722207047AF
S31500005C201438010008B50B4B1B78014673B10128E7
S31500005C300ED8094A094B30B972B618781170FFF7B9
S31500005C409DFE62B608BD72B60121F6E71120F9E79E
S31500005C502120F7E7143801000F3801008006000004
S31500005C60014B1878704700BF0F380100014B1878B8
S31500005C70704700BF80060000084B042013F8012D72
S31500005C801AB9013810F0FF00F8D1054B1B78034311
S31500005C90DBB2002B08BF0520704700BF0F3801009C
S31500005CA00A38010000B591B001A803F043F89DF849
S31500005CB00430032B03D1002011B05DF804FBFFF77D
S31500005CC0DBFF0528F7D106F0EFFC0028F3D0FFF73D
S31500005CD06FFCF1E738B5114D0521287800F02CFA54
S31500005CE0B8B10F4B1B78B3B1287800F0A9F9044678
S31500005CF068B9FBF787FB0028F6D10A4B1878FFF73F
S31500005D0091FF044618B929780520FFF713FF2046AE
S31500005D1038BD0224FBE71124F9E700BF8006000026
S31500005D20143801000F38010008B5FFF799FFBDE8E8
S31500005D30084001460320FFF721BE08B5FFF790FF94
S31500005D40BDE8084001460420FFF718BE194A1A4963
S31500005D5042F2100310B59360D1F8843443F0440343
S31500005D60C1F8843401239366144BD3F874211107C8
S31500005D7009D4D3F8742142F00102C3F87421D3F890
S31500005D8074211207FBD50D4C1023C4F86C31012386
S31500005D90C4F87431D4F874311B07FBD5FBF7E6FC65
S31500005DA002F0AAF80223C4F86C31BDE8104006F0F0
S31500005DB04FBC00BF008404240080042400800046F9
S31500005DC0F8B5474B0446D86910F008000E4602D1D4
S31500005DD00121FFF789FDE368424D434F2068D4E96E
S31500005DE00121012BC5F8007FA7F10217C5F8CC7F6A
S31500005DF007D10027C5F8C87F3C4DAD696D69A84736
S31500005E0036E0032B32D0052BF6D1394BD3F80426D6
S31500005E10970403D4D3F880351D0211D54FF0905363
S31500005E20D3F8C830D90304D4324BD3F8C830DA03D8
S31500005E3006D52F4AD2F8803543F40063C2F8803580
S31500005E402B4BD3F8802522F47F22C3F88025D3F884
S31500005E508025400000F47F201043C3F88005D3F866
S31500005E60802542F48012C3F8802501E0C5F8281F7A
S31500005E704FF00262D36A03F100631B689B0706D5E5
S31500005E80D36A126B1344174A4033C2F8343F144B9B
S31500005E90DD6915F008050BD129462846FFF724FDD4
S31500005EA029460120FFF720FD29460220FFF71CFDA9
S31500005EB0217C304606F0D4FB41F2017398420DD0A6
S31500005EC005DC18B101280CBF21200120F8BD41F2E4
S31500005ED0027398420CBF21200120F7E71120F5E755
S31500005EE00000081200100624AFBEAFBE000130004D
S31500005EF000800424000004127FB50B4B1B6813F0CE
S31500005F00407F0ED00123094A8DF81430084BCDE9A5
S31500005F100123084B03930021032301A80493FFF7F1
S31500005F204FFF07B05DF804FB00810424FC1E062425
S31500005F30002020081D1D000008B5264BDB691A0746
S31500005F4046D5254B5A6942F040625A615A6942F079
S31500005F5040725A615A6942F440025A615A6942F4DF
S31500005F6040125A615A6942F400225A615A6942F44F
S31500005F7070425A615A6942F470625A611A6C6FF340
S31500005F80D3421A645A686FF300025A600A2200BFAD
S31500005F90013A12F0FF02FAD10E49CA6912F008025C
S31500005FA0FBD10E48C16B21F03F01C163596862F312
S31500005FB04201084A5960D3695B07FCD400F0F8FD3A
S31500005FC000F002FEC82300BF013B13F0FF03FAD125
S31500005FD008BD00BF000008120081042400840424C8
S31500005FE008B5FFF7A9FF094BDB690022D3F8983003
S31500005FF0012110469847FFF733FE01460420FFF7BC
S31500006000BDFCBDE80840FFF7A1BE00BF000130009F
S3150000601008B5FFF791FF094BDB690022D3F89830EA
S31500006020012110469847FFF71BFE01460320FFF7A4
S31500006030A5FCBDE80840FFF789BE00BF000130009F
S3150000604010B5831E022B86B016D80C4A0C4B0228BC
S31500006050CDE901230B4B03934FF0000414BF11232A
S3150000606003238DF814400493FBF7D3F9214601A8C6
S31500006070FFF7A6FE06B010BD2120FBE7FC1E062496
S31500006080002020081D1D000010B5002845D002681C
S315000060901AB1244B1340002B41D043683BB98068AA
S315000060A050B9002932D0002A2BD1002010BD1E4C39
S315000060B0234234D08068D0B11C4C20422FD01C4CD7
S315000060C051B122B11B498A60F3B92060EDE7002B7C
S315000060D0FBD0184A5364F8E722B11649CA60D3B90F
S315000060E06060E2E7002BFBD0124A9364F8E71148A0
S315000060F019B102B182604364D7E702B1C26083641A
S31500006100D3E70C4B9A60D0E74B64DEE7002ACCD08D
S31500006110084BDA60C9E78B64E2E72220C6E7212054
S31500006120C4E700BF106A46000000EC1FFE0701002E
S31500006130008004240084042406280DD806290BD8E0
S315000061403C2302385843054B00EBC1010B44187938
S31500006150003818BF012070472120704708D9200851
S31500006160074B18420AD0074B1A6819B1104318603A
S315000061700020704722EA00021A60F9E721207047E2
S3150000618000007F3F00810424002871D003793BB9C9
S315000061900288C02A02D84188082922D921207047BE
S315000061A0816851B9C3686BB9902232490B681343B1
S315000061B043F040030B6000207047CBB2002BEDD0BC
S315000061C0C3680BB11A07E9D0C84300F47C72000714
S315000061D042D1003A18BF012212012748C16141612C
S315000061E03EE0032A10D9072A10D843F0020343F0F1
S315000061F0040343F0080343F0100343F0200343F085
S31500006200400343F080030FE00123EEE70B2AEED9AB
S315000062100F2AEED91F2AEED93F2A4FF00003ECD9F8
S315000062207F2AECD9C02AECD1012913D903294FF0D2
S31500006230000101D841F00401DA4312F00F020E48C2
S3150000624018BF0122D201016642F010020165C36146
S315000062504361AAE70221EDE742B190220029BCD1B1
S31500006260002BA2D004490B660B659EE78022B4E79B
S3150000627022207047008104240084042408B51B4BA7
S31500006280DB694FF08061D3F884304FF08C4098473B
S31500006290174800F0A7FB174800F0A4FB164B174859
S315000062A05A6A22F400325A62154AD2F880106FF305
S315000062B08611C2F880101349D1F8842422F04402D2
S315000062C0C1F884241A6A42F001021A621A6934215A
S315000062D061F306021A611A691F2161F316421A61F7
S315000062E0BDE80840084900F067BF00BF0001300064
S315000062F0544F00003C4F0000008104240082042417
S315000063000084042400800424FF7F3E0013B500208F
S31500006310FFF7B4FFFFF7A4FC01460220FFF72EFBB0
S31500006320354BDB690020D3F89C3098470023019356
S31500006330324BDB6913F0080357D13149314CD1F8A0
S31500006340242442F00402C1F824242F4A52690192FF
S315000063506268012161F3420262600193019B092B8D
S3150000636045DD264A019B01330193D3695907F9D5C7
S315000063706269012363F39B626261626963F3196276
S315000063806261626963F39752626163691F4A6FF3E0
S315000063901553636163696FF3D343636163696FF395
S315000063A01043636163696FF35143636163696FF31C
S315000063B05143636163686FF310436360636943F03D
S315000063C01F036361D36B43F03F03D36300F0F6FB17
S315000063D000F008FC6368094A43F001036360019B0F
S315000063E001330193D3691B07F9D502B010BD00BF75
S315000063F0019B0133B1E700BF000130000000081225
S3150000640000100424008104240014042400840424BD
S31500006410FFF77CBF10B586B00223002404934FF427
S31500006420D833CDE9013401204FF4F03303938DF8CE
S315000064301440FFF723FFFAF7ECFF21460520FFF78C
S315000064409DFA054A136823F480031360012101A80D
S31500006450FFF7B6FC06B010BD00810424FFF7DABFD3
S3150000646038B50D4C636A23F480236362FFF7FEFBA5
